:10027B00FEFDFBF770617373776F72643A20202079
:10028B0020202020003D3D3D436F646564204C6F72
:10029B00636B3D3D3D002020202020636F72726513
:1002AB0063742020202000202020202020657272E3
:1002BB006F72202020202000202020202020706121
:1002CB007373202020202020002020202020206F4E
:1002DB0070656E202020202020005365744E6577BA
:1002EB00576F7264456E61626C6500696E707574F0
:1002FB003A202020202020202020200052657365EA
:10030B007450617373776F72644F4B2000496E6941
:10031B00742070617373776F72642E2E2E0065726A
:10032B00726F722C74727920616761696E2100693A
:10033B006E70757420616761696E2020202020002B
:06034B00000000000000AC
:1007BB00C104C103C100C102C101042B0000000030
:0E07CB0006330103010402000139000121017F
:0C07DA00C2B61207E6D2B61207E6C2B69D
:0E07E6007FB07E15EF1FAC0670011E4C70F642
:0107F40022E2
:10080F007D05AC051DEC60107E1C7F65EF1FAA06F1
:08081F0070011E4A60EC80F438
:0108270022AE
:10082800EF1FAA0670011E4A600BE4FDEDC3947D1C
:0508380050EE0D80F7F9
:01083D002298
:0508960012089BD2A036
:05089B00000000002236
:0C087E00D2A1D2A012089BC2A102089BCC
:0C088A00C2A1D2A012089BD2A102089BC0
:0808520012087E7FA012079C32
:08085A00C2A1120896C2A022FF
:0808A900D2A1120896C2A022A0
:10079C007E08AD07C2A012089BED30E704D2A18001
:0E07AC0002C2A1D2A0EF25E0FDFFDEE6C2A052
:0107BA00221C
:10073400E4FFFE7D08D2A1C2A012089630A10543B1
:10074400070180035307FEED146005EF25E0FEFF6B
:02075400DDE5E1
:010756002280
:020691008D10CA
:100693008B128A138914E4FCECC39511502F1208B2
:1006A30052E5102CFF12079C12085AAB12AA13A989
:1006B300148C827583001205BBFF12079C12085A23
:0D06C30012088A7F147E001208280C80CBDC
:0106D0002207
:02060A008D0F52
:10060C008B118A128913E4FCECC395105035120837
:10061C0052E50F2CFF12079C12085A12087E7FA17C
:10062C0012079C12085A120734AB11AA12A9138C88
:10063C0082758300EF1205E8C2A01208A912088A7D
:03064C000C80C55A
:01064F002288
:0F0707008F807F017E00120716D2A67F017E0031
:10071600D3EF9400EE940040147D6E7C00ED1D70C6
:0D072600011CED4C70F7EF1F70E61E80E324
:0107330022A3
:0808B100C2A7120707C2A6222C
:07086200E50B9002B293FFC9
:08086900D2A7120707C2A62264
:10083E007F381208B17F0C1208B17F061208B17F03
:04084E00010208B1EA
:10053D00EFB41000507590054AF828287302057A1B
:10054D0002057E02058202058602058A02058E02DB
:10055D00059202059602059A02059E0205A2020564
:10056D00A60205AA0205AE0205B20205B67E0180FD
:10057D003A7E0280367E0380327E41802E7E04805C
:10058D002A7E0580267E0680227E42801E7E078082
:10059D001A7E0880167E0980127E43800E7E2A8088
:0D05AD000AE4FE80067E2380027E44AF0635
:0105BA00221E
:10077A00D297D295D293D291EF14600D14600D14D2
:10078A00600D2403700BC29722C29522C29322C223
:02079A009122AA
:10075700EF14600E14600F14601024037012A2903F
:10076700800AA2928006A2948002A296E433F52121
:02077700AF21B0
:01077900225D
:1004B2007BFFE4FAAF0212077AE4FDAF0512075799
:1004C200EF702A1207E61207E6AF05120757EF7020
:1004D2001C04A802088002C333D8FCC454F0FF7481
:1004E20001A805088002C333D8FC2FF52AAF0512F4
:1004F2000757EF60F80DBD04C20ABA04B7E4FAE583
:100502002AC4540FFFA802088002C313D8FCFFBFFD
:100512000122E4FDE52A540FFFA805088002C31357
:10052200D8FCFFBF010AE4F52AEA25E025E02DFB0D
:0A0532000DBD04E00ABA04C7AF03D0
:01053C00229C
:0808B900C2B61207E6D2B62216
:0608C9001207DAD2B6228C
:0908A0001207DA1207DFD2B622BA
:0D087100E5392485FF1208B17F2A020869CD
:100650003003157FC01208B1E4FBEB9002D493FF86
:100660001208690BBB10F322E53970107FC0120825
:10067000B1E4FBEB1208640BBB10F8227FC0120838
:10068000B1E4FBEB90027F93FF1208690BBB10F300
:010690002247
:1007F500E542B401147FC01208B1E4FBEB9002F6A8
:0908050093FF1208690BBB10F30C
:01080E0022C7
:10035100200308C2031206500208A0200003020471
:1003610025E53964066003020425053CE53C640289
:100371007079F50B7423250BF8E6FF7443250BF810
:10038100E6B50709050BE50BB406E980237FC0122A
:1003910008B1E4F50CE50C120864050CE50CC394F6
:1003A1001040F21208A0C203C200E4F53C1206504C
:1003B100E50B6406702E7FC01208B1E4F50CE50C64
:1003C10090030793FF120869050CE50CC3941040D4
:1003D100ED1208C97B007A007943751106E4FD121C
:1003E1000691C200E4F53CF54280361208B97FC09F
:1003F1001208B1E4F50CE50C90033A93FF12086979
:10040100050CE50CC3941040EDE4F50B7423250BAA
:10041100F8E6FF7443250BF8A607050BE50BB406B8
:04042100EBE4F539DA
:0104250022B4
:0808C100E4F590B2B60207E66F
:1006D1007FC01208B1E4FBEB90027F93FF1208691F
:1006E1000BBB10F31208C97F067823E4F608DFFC80
:1006F100D2B2D2B6C204C203C200E4F542F53CC292
:0507010002C201F53900
:0107060022D0
:100003007B007A007933751006E4FD12060AE539A0
:1000130064066003020158300003020138FBEBC39E
:100023009406503774232BF8E6FF74332BF8E6B5A8
:1000330007030B80E97B070529E529C3940340DE09
:1000430030B2DB7FC01208B1E4FBEB1208640BBBD8
:1000530010F81208C1D28CD201C203EB6406706798
:100063000542E542640170397FC01208B1E4F50B23
:10007300E50B9002D493FF120869050BE50BC394BB
:100083001040ED1208C9E4F529C2B2D203D28CF5AF
:100093000B74232BF8E4F6050BE50BB406F302010E
:1000A300717FC01208B1E4F50BE50B9002E593FFF5
:1000B300120869050BE50BC3941040ED1208C9D271
:1000C30000E4F542020171E52364017052E5246402
:1000D30003704CE52564017046E52664047040E531
:1000E300276402703AE52870367BFF7A03794B75F3
:1000F3001106FD1206917FC01208B1E4F50BE50B62
:1001030090031893FF120869050BE50BC394104085
:10011300ED1208C912080F1208C9E4F539804F7FA0
:10012300C01208B1E4F50B120862050BE50BC3948A
:100133001040F480347FC01208B1E4F50BE50B9056
:10014300032993FF120869050BE50BC3941040EDD7
:100153001208A080197FC01208B1E4F50B120862DF
:10016300050BE50BC3941040F41208A0C203E4F599
:0301730039D2047A
:010176002266
:100177007590FFD2AF758911D28AD2AAE4F58CF5B2
:100187008AC28C758BB0758D3CD2ABC28E12080FAC
:1001970012083E7F801208B1E4F50AE50A90029042
:1001A70093FF120869050AE50AC3941040ED7FC062
:1001B7001208B1E4F50AE50A90027F93FF12086975
:1001C700050AE50AC3941040ED7FC91208B17F0FF5
:1001D7001208B11207E6E4F5393001051208C180AB
:1001E70002D2B61204B28F08E508B4FF05E53BB4A6
:1001F70001E7300105E4F52280DFAF0812053D8FE6
:1002070009E50924DD601824F9600F24E924FD506D
:10021700C86002800F12035180BF1206D180BA1244
:10022700000380B57FC01208B1E4F50AE50A900221
:10023700F693FF120869050AE50AC3941040EDC258
:1002470004E539C3940650261208B9E4FBEBD395AD
:1002570039500FEB24C6FF1208B17F2A1208690B29
:1002670080EB74232539F8A60905390201E07539B1
:04027700060201E09A
:03000000020426D1
:0C042600787FE4F6D8FD75814802046D73
:1005BB00BB010CE58229F582E5833AF583E02250F5
:1005CB0006E92582F8E622BBFE06E92582F8E2223F
:0D05DB00E58229F582E5833AF583E4932259
:1005E800F8BB010DE58229F582E5833AF583E8F049
:1005F800225006E92582C8F622BBFE05E92582C8F5
:02060800F222DC
:10043200020177E493A3F8E493A34003F68001F268
:1004420008DFF48029E493A3F85407240CC8C333CB
:10045200C4540F4420C8834004F456800146F6DF9A
:10046200E4800B01020408102040809007BBE47E68
:10047200019360BCA3FF543F30E509541FFEE4938F
:10048200A360010ECF54C025E060A840B8E493A356
:10049200FAE493A3F8E493A3C8C582C8CAC583CA81
:1004A200F0A3C8C582C8CAC583CADFE9DEE780BE39
:0107D900001F
:00000001FF
